:02000004F90001
:10000000972100009381813F17A10000130181C354
:100010001715000013054562971500009385C5610B
:100020001386018463FAC5008322050023A05500CE
:1000300011059105E3EAC5FE1385018493850184CA
:100040006377B500232005001105E36DB5FE492057
:06005000A12D01A0828039
:10005600B367B5008D8BB9EF9841B7867F7F9386DE
:10006600F6F7B377D700B697D98FD58F7D56639CB1
:10007600C7042A867D5811069105232EE6FE98416F
:10008600B377D700B697D98FD58FE38607FF83C797
:10009600050003C7150083C625002300F60099C78F
:1000A600A300E60001C72301D60091E28280A301E6
:1000B60006008280AA8703C7050085078505A38FEA
:1000C600E7FE75FB82802A86D9B7411122C44AC051
:1000D600171400001304E455171900001309695595
:1000E6003309894006C626C2135929406309090007
:1000F60081441C40850411048297E31C99FE171461
:100106000000130404531719000013098952330918
:100116008940135929406309090081441C4085041C
:1001260011048297E31C99FEB2402244924402498C
:1001360041018280411122C406C6937735002A8484
:10014600A9E718413706FFFE1306F6EFB307C70007
:10015600B78680801347F7FF93860608F98FF58FD9
:100166008DE711051841B307C7001347F7FFF98F4D
:10017600F58F81EF11051841B307C7001347F7FF45
:10018600F98FF58FF9DF11A0050583470500EDFF0F
:10019600C1352285B24022444101828093773500E1
:1001A6002A87A1E3B7867F7F9386F6F7FD55110769
:1001B6000326C7FFB377D600B697D18FD58FE388CE
:1001C600B7FE8346C7FFB307A7400346D7FF0345DD
:1001D600E7FF8DC60DC23335A0003E9579158280A6
:1001E600F1D283470700050793763700F5FB098FA1
:1001F6001305F7FF82801385D7FF82801385C7FF1B
:100206008280484141811375F50F8280411106C6EF
:1002160022C426C22A84AE842285E53775DD04C051
:10022600B2402244924441018280411106C6AA8509
:10023600370501F8E13FB24041018280411106C60F
:1002460022C42A840345040001C50504F93FDDBF25
:10025600B240224441018280411106C622C426C210
:10026600AA84714431A8B3D7840013F7F700B717EF
:1002760000F993878763BA9703C507007D37711422
:10028600E35304FEB240224492444101828041116C
:1002960006C622C426C2AA84714431A8B3D78400F4
:1002A60013F7F700B71700F99387C764BA9703C522
:1002B6000700A53F7114E35304FEB2402244924462
:1002C60041018280411106C61375F50FB93FB24050
:1002D60041018280411106C69537B24041018280B4
:1002E600797106D622D426D2AA84634405000A84EC
:1002F6000DA01305D002F937B3049040CDBF2947AE
:10030600B3E7E402938707032300F400B3C4E402CF
:100316000504F5F48A87E304F4FE29A07D14034559
:1003260004004D378A87E31BF4FEB25022549254E0
:1003360045618280411106C601479D4763CBE700B0
:1003460093162700C157B397D700E98F99C30507BE
:10035600EDB7353FB24041018280411106C60147E3
:100366009D4763CBE70093162700C157B397D70085
:10037600E98F99C30507EDB7C535B24041018280C3
:10038600411106C622C42A84113D7D15814763D1D9
:10039600A702B306F40003C606003307A40083458C
:1003A60007002380B6002300C70085077D15C5B763
:1003B600B240224441018280411106C663450500D0
:1003C6002A86014831A03306A040E5BF46883E860E
:1003D600A947B366F602930818003387050193868A
:1003E60006032300D700B347F6022547E340C7FEBE
:1003F600634A0500AE98238008002E855137B24027
:1004060041018280AE989307D0022380F8009308BA
:100416002800CDB7011106CE22CC26CA22A426A0DA
:100426002E84D31705C2538407D25374850AAA852E
:100436003E8559379307E0022300F4009304140025
:1004460053741440D304044207B48181D3F4841254
:10045600D3F41440D30700F0D397F4A095EB1144DE
:1004660063518004538404427D14D30504D207B536
:100476000182B52BD317A4A2E5D7D30700F0D397F3
:1004860097A0F9DF930700032380F4008504C9BF12
:100496009307D002A300F40093042400D39494207D
:1004A6007DBFA685539504C0013FF2406244D24405
:1004B6002224822405618280397106DE22DC6C00EA
:1004C6002808893F0347D1009307D0026303F70446
:1004D60001446C002808B939034781019307D0020B
:1004E6006303F70039E82808913BF2506254216112
:1004F60082801387F7FF1418BE9683C6C6FD1018B0
:100506003297230ED7FC85072547E354F7FE0544AB
:10051600C9B78947D5BF138717001418BE9683C677
:1005260086FE101832972304D7FEFD17E3D507FE83
:100536009307D002230CF1007DB7CD47C5BF3971B3
:1005460006CE22CC26CAAA842ED232D436D63AD8A1
:100556003EDA42DC46DE5C103EC6014401A8B247E4
:10056600138747003AC68843B13B0504B387840026
:1005760003C5070051C9930750026300F504993378
:10058600EDB7B247138747003AC68843A133F1BF98
:10059600B247138747003AC688439933F9B7B2473B
:1005A600138747003AC688434D3BC1B7B247138706
:1005B60047003AC68843BD3B4DBF0504B387840058
:1005C60083C70700DDD313073006E38AE7F813076E
:1005D6003007E388E7FA13074006E38BE7FA1307C9
:1005E6008005E38EE7FA13078007E381E7FC13072C
:1005F6006006E394E7FCB2479D07E19B13878700FB
:100606003AC68823553D95B7F2406244D2442161EB
:100616008280031806006344050081472DA8330530
:10062600A0404205418533080041C5BFB3D8F54017
:1006360033051541420541853357F740BA95C20542
:10064600C18533D7F640B358F840C696C206C18670
:100656003308E84085071D476349F7022A87E3C741
:1006660005FCB3D8F5404695420541853357F7401A
:10067600998DC205C18533D7F640B358F840B38685
:100686001641C206C1863A98F1B7935718401358D7
:1006960038403E9823100601935715400D853E9528
:1006A6008280717106D722D526D34AD14ECF52CD3C
:1006B60056CB5AC95EC762C566C36AC1EEDE8D6790
:1006C6009387F7D3BEC2BEC002DE02DC3EC63EC47E
:1006D60091673EDA02C2B1AC13050002E536850D1C
:1006E600E2473E9C420C135C0C41F247B38BFB4045
:1006F600C20B93DB0B4182573E9B420B135B0B41B4
:100706009307E00463CCB70D93595C409257BE99AA
:1007160013D95B40A2573E9993545B40B257BE949F
:10072600924713DD2740D2473247B38CE74093DC2C
:100736002C40C247B30AF040A247B38AFA4093DA84
:100746002A40130400202316A10723175107E68623
:10075600F010CA854E85753D930505E08316C106E2
:100766001306E106C205C18526856535130505F024
:100776002A94856793870780E3C087F6854763D801
:10078600A702B307AC02B987BE99C20993D909413A
:10079600B387AB02B9873E9942091359094133051C
:1007A600AB023985AA94C204C184050A69BF8317BE
:1007B600E106A5876357F0002D476355F700AD475F
:1007C60011A08147371700F913078768BA9703C541
:1007D6000700CD3CC25785073ED811B7371500F93B
:1007E60013054569C53CA6478507BEC4B647664797
:1007F6003E9742074187D647F646B697C207C18756
:10080600D946264663C6C606E25693DB4640B38BF8
:10081600DB40F25613DB4640330BDB40D25613DC8B
:100826004640330CDC40420C135C0C019246330C00
:10083600DC40420C135C0C4142074183BACCB30B3B
:100846007741C20B93DB0B010647B38BEB40C20B20
:1008560093DB0B41C207C183BECE3E9B420B135BAB
:100866000B0196473E9B420B135B0B41814D49BDE5
:100876004256D285371500F913050566C931B247C8
:100886004647998FC207C1873EC695872247BA97C2
:10089600C207C1873EC4E25613D75640F257338784
:1008A600E740420741831316070141869357564096
:1008B600B69793950701C1811395050141850644B5
:1008C600935654409647B386D740C206C182939743
:1008D6000601C1879587A297C207C18312441358A0
:1008E6006440D2543388044193140801C18426DA43
:1008F60013D86440229813140801418422C2198631
:10090600918EC206C186B6C299863697420741873E
:100916003ADE13576540998FC207C187BEC09987D3
:10092600AE97C207C1873EDC371500F91305056887
:10093600393116473AC8924693972600B697998753
:100946003ED2864636CA93972600B69799873ED4F6
:1009560093172700BA97B307F04099873ED6B24659
:1009660093D7664013D75640BA97C207C183BEC60F
:10097600224693575640139707014183BAC89357A7
:100986006640BA97C207C183BECA5257935777408B
:100996001987BA97C207C1833ECC625793577740EF
:1009A6001987BA97C207C1833ECE725793577740CD
:1009B6001987BA97C207C1833ED013D7164093D77B
:1009C60046403E97420741833307E040420741874E
:1009D6009357164093564640B697C207C183B3074E
:1009E600F040C207C18782C402D8014A11BD79719D
:1009F60022AC26A84AA406D64EA0D304A522538428
:100A0600B522212A938701819843FD575309A522D0
:100A16006308F702D32784A285C7D3A794A2A5C7E4
:100A2600D30900D2D3A734A38DC7D32734A3ADE30C
:100A360053058422EF00701801C5D31734A3C5E30C
:100A4600B250530529236224C224222982294561F2
:100A56008280EF00901631C9D30700D2D327F9A2BE
:100A6600E5D353859422EF00501579D95305842296
:100A7600EF00B01471D5EF00D03A930720021CC1E5
:100A8600530900D275BFD30700D2D327F4A2CDDB1A
:100A9600B2509717000007B907C0530529236224EF
:100AA600C224222982294561828053859422EF003F
:100AB600D0105DD153058422EF00301051DDD327CD
:100AC60029A3A1C7EF00F035D39734A3130720025B
:100AD60018C185E39717000007B9E7BC95B7EF0083
:100AE6005034930710021CC19717000007B927BBA3
:100AF60081BF53058422EF00500ED32785A2F9FB50
:100B06009717000007B9A7B925BFEF0090319307E3
:100B160010021CC153F9391B25B759712EA4B247CF
:100B26002247B706008093C6F6FFA6D2B3F4F600B6
:100B36002AA486D6A2D4CAD0CECED2CCD6CAA2A455
:100B460033E6E4002245B24541C233F4B600B706A7
:100B5600F07F2E8AAA8963C486063E893A88630591
:100B6600D40863CE9604B706F07F6388D4042AC8F7
:100B76002ECA3ACC3ECE814A63490A086317080C4E
:100B8600B707F07F6383F414B707F03F6381F41669
:100B9600B7070040630CF95CB707E03F6317F90A33
:100BA60063450A0A26544225B65096540659F64914
:100BB600664AD64A2624656181A5E30A08FAB7067D
:100BC60010C0A296558D05E59717000087B7A7AC0C
:100BD6003EA4B6502654222596540659F649664A2E
:100BE600D64A26246561828019E1E35E94F626548E
:100BF600B65096540659F649664AD64A262417151B
:100C06000000130505A96561E1A7B707404363D94D
:100C1600F410B707F03F63C8F40293D744419387B3
:100C260017C051476359F75413074003B307F740FA
:100C360062473357F700B317F70063960701058B32
:100C4600894AB38AEA40E30108F44225B12F2AA46F
:100C560063830904D247FD83FD1733E7FA0079C39E
:100C66003707E0416357970C3707F043635F9746B2
:100C7600B707F03F635AF408635809069717000050
:100C860087B7E7A4D3F7F7123EA4A1B74225292FC9
:100C96002AA46399090801C8D2473707F03F8A0793
:100CA6008983E399E7FA63440906E3540AF2B7072E
:100CB60010C0A297B3E7570163910750A227D3F755
:100CC600F70AD3F7F71A3EA429B74247B70710C069
:100CD600A297D98FE38A07EEB707F03F6344F43E45
:100CE600E2273EA4E35709EE02C402C6DDB5C227D9
:100CF6003EA4E35009EE22279717000087B7A7996D
:100D0600D3F7E71A3EA4F1B5E34A20F7F1BF22274D
:100D16009717000087B72798D3F7E71A3EA471B74D
:100D2600894AA9BDC227D3F7F70AD3F7F71A3EA413
:100D36004DB5D2463707F07F0145758F01EF222763
:100D4600171700008737279C1305B0FCD377F712D7
:100D56003EA4324437081000935544419306F8FFE9
:100D660037A60300938515C0E18E3707F03F1306BB
:100D7600E688AA95558F635ED63437B60B00130600
:100D860096676354D644D30100D29716000007B67F
:100D96008690D307C622D3823122850533070741C1
:100DA6000145A2463ACA058736C84227B70600203B
:100DB600558F53F1E702D370F70AB7060800369746
:100DC600B306A700014632C45371261A36C6A226B8
:100DD6001717000087352794171700000730279646
:100DE600D3F7F60AC226171700000732C796171759
:100DF60000000737C79117170000873F479217175C
:100E06000000073F479217170000873E47921717C3
:100E16000000073E4792171700000738C792D3F71E
:100E2600F60A171700008736879202C402C802D056
:100E360002D453F5201232DC538305D22AB85375F7
:100E4600A51252573AC6222436DE4377E55AE233D4
:100E5600D375A512CB70740A4234A2234377A7FA3E
:100E6600D37374022224CB77F40A4377A7F2C378AC
:100E76008402D3F727124377A7EAD3F0F312437716
:100E8600A7E243F7E50AD3F5E8022EBC72573ACA41
:100E9600C225D3F5050ACB75845A5377B70AC235EE
:100EA6005377B712C225C3F7B7725387B522C22547
:100EB6004377877A3AB852573AD202354B77B452CB
:100EC600D3F7E70AD3F70713C3F7A67A53F7570200
:100ED600C377A272D3F73702D3F767023EA432472D
:100EE6003AD6A237A235D3F7670AD3F7370ACB77B4
:100EF600457A5377F70AFD1AB3E7FA005304C62278
:100F060089E79707000007B4077CF24702C4E22787
:100F16003EC6A226B7069040D3F7D70AE2265377F5
:100F2600D712A226D3F6D512C3F7B77253F7D70254
:100F36003AA4B24722473E8863C3D714B386D74044
:100F4600D98E639206263EC63AC4A225971600009D
:100F560007B7E68053F7E702D3F5D50AD397E5A29C
:100F6600639307249357484193F7F77F370610009A
:100F7600938727C0B357F640C29713D747411377D5
:100F8600F77F130717C01305F6FFB356E54093C660
:100F9600F6FFFD8E7D8DD14702C436C6518D33874F
:100FA600E74022273355E540635408003305A04047
:100FB600D3F6E60A9316450153F7D7023AA4B24789
:100FC6003EC602C422279707000087B5477A9707CF
:100FD600000007B5477AD376D70AD3F5E512970707
:100FE600000007B0C7799707000007B7C7799707CA
:100FF600000087B2C7799707000007B2C77997073D
:10100600000087B1C779D3F7D70AA2269707000051
:1010160007B167799707000087B06779C3F7A75AC2
:10102600C375D07A53F5B512CBF6065A4377E52A3F
:10103600D3F7D70A4377A722C3F7F57A4377A71AD8
:101046004377A7124B77A75AD3F6E5125377170AB9
:1010560053F7E61AD377F70AD3F7B70AD377F60A20
:101066003EA4B2472247BE9613D646416352C018E5
:101076003AC436C62225D37785123EA499BE9395E7
:101086001700B7D6904085819386F6BF63D4B61015
:10109600B7366F3F93860640BE96D98E91EA3EC616
:1010A6003AC422275377D70AD387E7A2E38C07EA05
:1010B6009707000087B7276B5374F412D377F4129F
:1010C6003EA401BEE35209C2E227D397F7223EA40B
:1010D60009B6D30100D29706000007B6C65B0145E4
:1010E600D3823122D307C6226DB93707F03F930664
:1010F600E7FFE3D386B8E34987C0A22717070000B6
:1011060007366759170700000730675DD3F7C70A28
:10111600170700008736275C170700008730A75C93
:10112600170700000735A75C170700000737A75CFD
:10113600170700008735A75C02C4CBF6D70253F029
:10114600F712CBF6F60AD3F60612D3F6A61247F72F
:10115600E76AC3F6B77236A852473AC6A226CBF755
:10116600B76AD385D6225377F70A71B3C227D3F766
:10117600F7123EA4B9BCE31B08B0B307F74033D758
:10118600F440B317F700E39197A0058B894AB38A19
:10119600EA40DDBA3706E03F81460145E352B6E252
:1011A60093D74541E1B39707000087B74752537479
:1011B600F412D377F4123EA429BC8547E39BFAA028
:1011C600A227D397F7223EA429B49706000087B139
:1011D600064E9706000087B2064E370504009706AE
:1011E600000087B7C64D9706000007B6C64A55BE2B
:1011F6005385F722352E41B541112AA4B246370749
:10120600F07F22463378D700630DE816B68732851D
:101216006357D00E93D54641638E051637071000E7
:101226009306F7FFF58FD98F938615C0139717008E
:1012360013F616009357F501BA971317150011C642
:101246007D838607BA971317250093DE1640D94586
:10125600014E8146370620003385C6001358F70134
:10126600FD1563C6A700898FB306C500329E8607A3
:10127600C29706070582EDF10143130800023706FF
:10128600008021A8638ED70C1355F70186077D18B9
:10129600AA9706070582630B08023305B600E3D357
:1012A600F6FEB305C500B6886346050A958FB336C4
:1012B600A700958F098F1355F70186077D1832937E
:1012C600C686AA9706070582E31908FCD98FD5E3D7
:1012D6001358130093571E403707E03F137E1E0036
:1012E6003E9763060E00B70700803368F8009397B1
:1012F6004E01BA9742C43EC6222541018280139709
:101306001600058332C436C6518F22257DD7B5EE29
:101316001356B500AD17328756057DDA935646014A
:10132600BDEE814611A0AE8606071316B70093855B
:101336001600E35A06FE930800022A88B388B840CE
:101346003A863315B50033571801B385D740B367CE
:10135600C700E9B593C8F5FF93D8F801B698B9B7B1
:10136600E364A7F2B305C500E34605FEBE888147E0
:1013760091B7FD576303F3021308130013581800BF
:1013860091BF4375A552410182805375A50A5375D5
:10139600A51AA5B73687814769B7050E25BF2A88DE
:1013A60093080002FD5645B741112AA432470607A5
:1013B60005833AC622254101828041112AA432457D
:1013C600B7071080060505813E957D814101828023
:1013D6009707000007B5273E828001112AA43247ED
:1013E600A2474D469356474193F6F67F938516C01E
:1013F6003A833E889358F7016345B60E63CD0506DA
:10140600370610007D163356B6403375E6003EC4E7
:101416003AC65D8D31CD135516003378E500336835
:10142600F800630508021386E6BE37030400133688
:1014360016001345F5FF370800803306C040698F54
:10144600B355B3403378C8003363B7008E089707A7
:1014560000009387C73642C41AC6BE9807B708006D
:10146600A227D377F7023EACE227D3F7E70A3EA4DA
:10147600222505618280B706008093C6F6FF33F603
:10148600E600D18FF5D79317C700B18333E707017D
:10149600B307E04013963800D98F170700001307EB
:1014A600073232971823B18301773706080033775E
:1014B6006700F18FB3E5E70042C42EC6A227FE08F7
:1014C600D377F7023EACE227D3F7E70A3EA4B2474A
:1014D6002247FD8EB3E616013AC436C622250561BB
:1014E600828013063003635DB6003EC43AC6930796
:1014F6000040A227E39EF5F6D3F7F7023EA48DBF80
:101506009386D6BE7D563356D6003AC63EC433774A
:10151600F60039DF05823377F6000DDB3708004029
:101526001346F6FFF18FB356D84033E8D70039BFDC
:1015360041112AA4B248224893D6484193F6F67F31
:10154600B5EE939618008582B3E60601B5C69707F1
:10155600000087B7C727D377F512D176938606CBD7
:101566003EA42248B2486346D50A93D6484193F62C
:10157600F67F46869386A6FCAA969305E07F63C20D
:10158600D502634DD0069305B0FC63D5B604B166AB
:101596009386063563C7A6009707000087B7A71C82
:1015A60029A09707000087B7871242C446C622279C
:1015B6005385E7225375F512410182809305F07F2A
:1015C6004686E39BB6FA42C446C6A227410153F5B6
:1015D600F7028280B7071080FD17938666037D8E1B
:1015E600D206B3E5C60042C42EC6A227970700005E
:1015F60007B5671E5375F51241018280B707108043
:10160600FD177D8ED206D18E42C436C622254101F3
:1016160082809707000007B5071553F5A712410109
:0A162600828093874181884382800F
:04163000E01700F9C6
:101638003031323334353637383941424344454600
:1016480000000000303132333435363738396162C2
:101658006364656600000000256420697465726132
:1016680074696F6E73202564206C697420706978C2
:10167800656C731B5B4B00000D1B5B323341000034
:101688002E2C2D7E3A3B212A3D23244000000000C9
:10169800000000000000F03F000000000000F0FF24
:1016A800000000000000F07F0000004003B8E23FA7
:1016B80006D0CF43EBFD4C3E000000000000F83F91
:1016C800000000000000F0BF9C7500883CE4377EF5
:1016D800000000000000D03F555555555555D53FE1
:1016E800000000000000E03FFE822B654715F73F31
:1016F80044DF5DF80BAE543E000000604715F73F2D
:101708000000000000004043EF4E454A287ECA3FD3
:1017180065DBC9934A86CD3F01411DA96074D13F5D
:101728004D268F515555D53FFFAB6FDBB66DDB3F6F
:10173800033333333333E33F000000000000084035
:10174800FD033ADC09C7EE3FF5015B14E02F3EBE0E
:10175800000000E009C7EE3FFE822B654715973C65
:1017680059F3F8C21F6EA501396CA80C615C20BE44
:10177800EF39FAFE422EE63F00000000432EE63F16
:10178800D0A4BE726937663EF16BD2C541BDBBBEFF
:101798002CDE25AF6A56113F93BDBE166CC166BFDD
:1017A8003E5555555555C53F000000000000004006
:1017B800000000000000F87F000000000000304337
:1017C80000000000000030C300000000000050438B
:1017D800000000000000903C00000000CC1A00F956
:1017E800341B00F99C1B00F90000000000000000F9
:1017F80000000000000000000000000000000000E1
:1018080000000000000000000000000000000000D0
:1018180000000000000000000000000000000000C0
:1018280000000000000000000000000000000000B0
:1018380000000000000000000000000000000000A0
:101848000000000000000000000000000000000090
:101858000000000000000000000000000000000080
:101868000000000000000000000000000000000070
:101878000000000000000000000000000000000060
:1018880001000000000000000E33CDAB34126DE6FD
:10189800ECDE05000B000000000000000000000066
:1018A8000000000000000000000000000000000030
:1018B8000000000000000000000000000000000020
:1018C8000000000000000000000000000000000010
:1018D8000000000000000000000000000000000000
:101C0800FFFFFFFFE01700F9000000000088C34055
:101C18000000000000002440020000000100000055
:0E1C28000500000000000000000000000000A9
:04000005F9000000FE
:00000001FF
